S00D000066696E616C2E737265630D
S11300000C942A000C9447000C9447000C9447006D
S11300100C9447000C9447000C9447000C94470040
S11300200C9447000C9447000C944D060C94470024
S11300300C9447000C9447000C9447000C94470020
S11300400C9447000C9447000C9447000C94470010
S11300500C94470011241FBECFE5D8E0DEBFCDBF0E
S113006010E0A0E6B0E0ECE5F3E102C005900D92EB
S1130070AC3DB107D9F720E0ACEDB0E001C01D9272
S1130080A23EB207E1F70E942E050C94AC090C9431
S1130090000087B1806487B986B1806886B986B16B
S11300A0846086B986B1826086B986B1806286B979
S11300B080B7806880BF80B7806480BF80B78F7D41
S11300C080BF089587B18F7B87B986B18F7786B952
S11300D086B18B7F86B986B18D7F86B986B18F7DD7
S11300E086B980B78F7780BF80B78F7B80BF80B79A
S11300F08F7D80BF0895CF92DF92EF92FF9286B1F9
S1130100806486B9349BFECF86B1806186B984B1A0
S113011065B170E0762F6627682B80E090E00E943E
S1130120880820E030E040EB51E40E94E7076B01CF
S11301307C0120E030E040EA50E40E9416091816E1
S113014044F40F2EC12CD12CF0EAEF2EF0E4FF2E54
S1130150F02DC701B601FF90EF90DF90CF90089586
S1130160813001F130F08230B1F1833009F44CC0B8
S11301700895413059F42AB381E090E002C0880F19
S1130180991F6A95E2F7822B8ABB08952AB381E00E
S113019090E002C0880F991F6A95E2F78095822348
S11301A08ABB0895413059F427B381E090E002C03E
S11301B0880F991F6A95E2F7822B87BB089527B3AE
S11301C081E090E002C0880F991F6A95E2F780955C
S11301D0822387BB0895413059F424B381E090E031
S11301E002C0880F991F6A95E2F7822B84BB089599
S11301F024B381E090E002C0880F991F6A95E2F76A
S11302008095822384BB0895413059F421B381E061
S113021090E002C0880F991F6A95E2F7822B81BB98
S1130220089521B381E090E002C0880F991F6A9578
S1130230E2F78095822381BB08958130C9F028F0CC
S1130240823049F18330D1F14BC029B381E090E091
S1130250062E02C0880F991F0A94E2F730E0822329
S1130260932302C0959587956A95E2F7982F38C035
S113027026B381E090E0062E02C0880F991F0A94ED
S1130280E2F730E08223932302C0959587956A951F
S1130290E2F7982F25C023B381E090E0062E02C038
S11302A0880F991F0A94E2F730E08223932302C057
S11302B0959587956A95E2F7982F12C020B381E04F
S11302C090E0062E02C0880F991F0A94E2F730E0EE
S11302D08223932302C0959587956A95E2F7982F18
S11302E0892F0895813001F130F08230B1F18330EB
S11302F009F44CC00895413059F42BB381E090E0E7
S113030002C0880F991F6A95E2F7822B8BBB089570
S11303102BB381E090E002C0880F991F6A95E2F741
S1130320809582238BBB0895413059F428B381E032
S113033090E002C0880F991F6A95E2F7822B88BB70
S1130340089528B381E090E002C0880F991F6A9550
S1130350E2F78095822388BB0895413059F425B390
S113036081E090E002C0880F991F6A95E2F7822B22
S113037085BB089525B381E090E002C0880F991FE2
S11303806A95E2F78095822385BB0895413059F43C
S113039022B381E090E002C0880F991F6A95E2F7CA
S11303A0822B82BB089522B381E090E002C0880FC3
S11303B0991F6A95E2F78095822382BB0895813064
S11303C001F130F08230B1F1833009F44CC008956A
S11303D0413059F42BB381E090E002C0880F991F9B
S11303E06A95E2F7822B8BBB08952BB381E090E0F2
S11303F002C0880F991F6A95E2F7809582238BBB10
S11304000895413059F428B381E090E002C0880F88
S1130410991F6A95E2F7822B88BB089528B381E07F
S113042090E002C0880F991F6A95E2F780958223B5
S113043088BB0895413059F425B381E090E002C0AF
S1130440880F991F6A95E2F7822B85BB089525B31F
S113045081E090E002C0880F991F6A95E2F78095C9
S1130460822385BB0895413059F422B381E090E0A2
S113047002C0880F991F6A95E2F7822B82BB089508
S113048022B381E090E002C0880F991F6A95E2F7D9
S11304908095822382BB0895CF93DF930E94D50475
S11304A0D0E039C081E00E94930483EF91E001978A
S11304B0F1F700C0000061E08C2F0E94F40482E791
S11304C090E00E941B0587EA91E60197F1F700C0CE
S11304D00000C15001C0CAE0C111E4CFC1E018C09E
S11304E081E00E94930483EF91E00197F1F700C04B
S11304F0000061E08C2F0E94F40482E790E00E94E7
S11305001B0587EA91E60197F1F700C00000CF5F71
S1130510CB3030F3DF5FD330F0F2DF91CF91089529
S1130520FF920F931F93CF93DF93082FF62E142F70
S113053081E00E94930483EF91E00197F1F700C0FA
S1130540000061E081E00E94F4048AE790E00E94E8
S11305501B05CDEC0C9FD12D1124D695D695D6959F
S113056080E38D0F0E94B604DD0F8D2F880F880F56
S1130570D80F802F8D1B805D0E94B60461E08AE055
S11305800E94F4048FE790E00E941B05FC9EC12D9D
S11305901124C695C695C69580E38C0F0E94B604B7
S11305A0CC0F8C2F880F880FC80F8F2D8C1B805D6C
S11305B00E94B60462E081E00E94F40484E890E0C2
S11305C00E941B051330A9F028F4113041F01230B9
S11305D059F01EC0143091F01530A9F019C08BE801
S11305E090E00E941B0518C083E990E00E941B055F
S11305F013C08DE990E00E941B050EC084EA90E0D0
S11306000E941B0509C08AEA90E00E941B0504C0F1
S113061084EA90E00E941B05DF91CF911F910F9116
S1130620FF900895CF93DF93D82F61E085E00E9477
S1130630F404CDECDC9FC12D1124C695C695C69556
S113064080E38C0F0E94B604CC0F8C2F880F880F88
S1130650C80F8D2F8C1B805D0E94B604DF91CF9153
S11306600895CF93DF93D82F61E08EE00E94F404C5
S1130670CDECDC9FC12D1124C695C695C69580E3AB
S11306808C0F0E94B604CC0F8C2F880F880FC80FD4
S11306908D2F8C1B805D0E94B604DF91CF9108954D
S11306A0CF93C82F62E087E00E94F404C330A9F01E
S11306B028F4C13041F0C23059F01EC0C43091F06A
S11306C0C530A9F019C083EB90E00E941B0518C047
S11306D083E990E00E941B0513C08DEB90E00E941B
S11306E01B050EC088EC90E00E941B0509C082ED3A
S11306F090E00E941B0504C088EC90E00E941B055A
S1130700CF9108958F929F92AF92BF92CF92DF9232
S1130710EF92FF92CF93C62F69017A01682F70E0A0
S113072080E090E00E9488084B015C016C2F70E02F
S113073080E090E00E9488089B01AC01C501B401EF
S11307400E947A0720E030E048EC52E40E94E70778
S113075020E030E040E251E40E941B094B015C01BF
S1130760A7019601C701B6010E947B0720E030E093
S113077040E251E40E94E7079B01AC01C501B401CA
S11307800E941B0920E030E040E251E40E94E707A8
S113079020E030E84FE754E40E941B090E94DA0687
S11307A0CF91FF90EF90DF90CF90BF90AF909F904C
S11307B08F9008950E94FB060E9462000895CF92D4
S11307C0DF92EF92FF920E9449000E947B006B012E
S11307D07C010E946200C701B601FF90EF90DF9098
S11307E0CF9008950E94D006089541E060E082E031
S11307F00E94B00041E061E082E00E94B00041E06C
S113080062E082E00E94B00041E063E082E00E9486
S1130810B00040E064E082E00E94B00040E065E0A7
S113082082E00E94B00040E066E082E00E94B000F6
S113083040E067E082E00E94B00041E064E082E0D2
S11308400E94DF0141E065E082E00E94DF0141E0B7
S113085066E082E00E94DF010895EF92FF920F9319
S11308601F93CF93DF93CDB7DEB72C970FB6F894D1
S1130870DEBF0FBECDBF8CE0E6E6F0E0DE011196F0
S113088001900D928A95E1F7EE24EA94F12C3AC096
S113089041E060E082E00E94720141E061E082E0B8
S11308A00E94720141E062E082E00E94720141E034
S11308B063E082E00E94720140E06F2D82E00E94BA
S11308C0720110E01AC064E0610F82E00E941D0111
S11308D0082F811111C08F2D90E0FC01EE0FFF1F36
S11308E0E80FF91F81E090E08C0F9D1FE80FF91FBE
S11308F0E10FF11DE08003C01F5F133020F30023DC
S113090021F0F39493E09F1518F68E2D2C960FB6D4
S1130910F894DEBF0FBECDBFDF91CF911F910F9131
S1130920FF90EF900895982F907F9BBB98B39D7F85
S113093098BB98B39B7F98BB98B3916098BB000019
S113094098B39E7F98BB91E29A95F1F70000829547
S1130950807F8BBB88B3816088BB000088B38E7FA7
S113096088BB81E28A95F1F700000895982F907F63
S11309709BBB98B3926098BB98B39B7F98BB98B38A
S1130980916098BB000098B39E7F98BB8295807F4E
S11309908BBB88B3816088BB000088B38E7F88BB23
S11309A081E28A95F1F7000008958FEF8ABB87BB37
S11309B088B38E7F88BB83E30E94930482E30E9402
S11309C0930488E20E9493048CE00E94930481E0E3
S11309D00E94930483EF91E00197F1F700C00000B7
S11309E086E00E9493040895CF93DF9300D000D053
S11309F0CDB7DEB790E8998390EC9A8394E99B8312
S1130A0094ED9C83E62FF0E0319721E030E02C0F49
S1130A103D1FE20FF31F9081890F81500E949304C0
S1130A2031E23A95F1F700000F900F900F900F907C
S1130A30DF91CF9108950F931F93CF938C01C0E062
S1130A4003C00E94B604CF5FF801EC0FF11D808152
S1130A508111F7CFCF911F910F9108950E94F50353
S1130A600E942B070E94F2030E944C02C1E00FC1B6
S1130A70C23009F49AC018F4C13041F007C1C33040
S1130A8009F451C0C43009F4DFC000C10E94DA0384
S1130A900E94670741E060916100809160000E94BC
S1130AA0900285E00E9450030E942D048C3029F0AE
S1130AB08F3FD1F38A30C1F301C0C2E02FE53AEE93
S1130AC090E0215030409040E1F700C000008C30AD
S1130AD009F4DDC0809360000E942D048C3029F05D
S1130AE08F3FD1F38A30C1F301C0C2E08C3069F08A
S1130AF090916000292F220F922F990F990F920F36
S1130B00890F8093600001C0C2E00E942D048C30E4
S1130B10D9F72FE936E881E0215030408040E1F7F1
S1130B2000C00000B4C082E60E9452078C2F0E94CD
S1130B305003809160000E941203809161000E9422
S1130B40310320E030E0A9016091610080916000F0
S1130B500E9482030E942D048C3009F4C1E040916C
S1130B60610080916000481750F0242F30E0281B6A
S1130B7031092630310534F020E030E005C020E0B2
S1130B8030E002C021E030E02115310509F07FC0DA
S1130B90841738F090E0841B9109069714F421E03F
S1130BA030E0232B09F46EC072C082E60E94520723
S1130BB08C2F0E945003809160000E941203809148
S1130BC061000E94310320916200309163004091E2
S1130BD064005091650060916100809160000E9402
S1130BE082030E942D048C3009F4C1E0209161003D
S1130BF080916000281740F0422F50E0481B5109B3
S1130C00463051050CF4C3E0821740F0482F50E001
S1130C10421B5109463051050CF4C3E0821740F4DD
S1130C20422F50E0481B51094B3051050CF0C4E0F1
S1130C30281768F590E0821B9109069744F180918A
S1130C40E100811121C023C08C2F0E9450038091A8
S1130C5060000E941203809161000E9431030E948F
S1130C60DA030E9467070E943E0720E030E0A901F2
S1130C7060916100809160000E94820381E0809312
S1130C80DC0005C0C2E003C0C4E001C0C4E0809140
S1130C90DC00882309F4ECCEFFCF1F920F920FB62D
S1130CA00F9211242F933F934F935F936F937F93EE
S1130CB08F939F93AF93BF93EF93FF938091E00043
S1130CC08F5F8093E0008091DF008F5F8093DF006F
S1130CD08091DF00823031F41092DF000E944107DE
S1130CE0809361008091E000853061F41092E0000F
S1130CF00E94DF036093620070936300809364003A
S1130D00909365002091610080916000281788F419
S1130D10482F50E0421B51094630510554F0409190
S1130D20DD005091DE004F5F5F4F5093DE00409333
S1130D30DD004091DD005091DE004830574018F04E
S1130D4091E09093E1004091DD005091DE00493044
S1130D505740A8F4281740F490E0821B91090697A5
S1130D6034F480E090E005C080E090E002C081E0CF
S1130D7090E0892B21F41092DE001092DD00FF91A7
S1130D80EF91BF91AF919F918F917F916F915F91FF
S1130D904F913F912F910F900FBE0F901F90189578
S1130DA08FB583628FBD8EB589608EBD81B380613E
S1130DB081BB0895CF92DF92EF92FF926B017C0189
S1130DC088EE93E09BBD8ABD20E030E0A901C70115
S1130DD0B6010E94160918163CF4C701B6010E9418
S1130DE0590879BD68BD02C019BC18BCFF90EF90CA
S1130DF0DF90CF9008951BBC1ABC19BC18BC089591
S1130E0041E064E081E00E94B00041E065E081E0FF
S1130E100E94B00041E067E081E00E94B0008DB123
S1130E2080618DB98DB181608DB98DB182608DB9CC
S1130E308DB184608DB98DB1877F8DB98DB180649A
S1130E408DB908958DB18F7B8DB908958FB9779B36
S1130E50FECF8FB108950E94000740E064E081E076
S1130E600E94720141E064E081E00E94720180E826
S1130E700E94260784E00E94260708950E94220704
S1130E80089540E064E081E00E94720141E064E082
S1130E9081E00E94720182E00E94260780E00E94A5
S1130EA02607089593B7986093BF93B79F7B93BF2A
S1130EB0789493B7916093BF93B79D7F93BF93B793
S1130EC0946093BF8CBF89B7826089BF089589B746
S1130ED08D7F89BF89B78B7F89BF89B78F7B89BF96
S1130EE089B78E7F89BF89B78B7F89BF89B78F7B8D
S1130EF089BF08955058BB27AA270E9492070C94D3
S1130F00DC080E94CE0838F00E94D50820F039F49D
S1130F109F3F19F426F40C94CB080EF4E095E7FBFC
S1130F200C94C508E92F0E94ED0858F3BA1762071C
S1130F3073078407950720F079F4A6F50C940F093C
S1130F400EF4E0950B2EBA2FA02D0B01B9019001E0
S1130F500C01CA01A0011124FF27591B99F0593F24
S1130F6050F4503E68F11A16F040A22F232F342F6C
S1130F704427585FF3CF469537952795A795F040BA
S1130F805395C9F77EF41F16BA0B620B730B840BCF
S1130F90BAF09150A1F0FF0FBB1F661F771F881F87
S1130FA0C2F70EC0BA0F621F731F841F48F48795DF
S1130FB077956795B795F7959E3F08F0B0CF9395D1
S1130FC0880F08F09927EE0F9795879508950E944A
S1130FD0FB070C94DC080E94D50858F00E94CE0848
S1130FE040F029F45F3F29F00C94C50851110C948A
S1130FF010090C94CB080E94ED0868F39923B1F30F
S1131000552391F3951B550BBB27AA27621773072A
S1131010840738F09F5F5F4F220F331F441FAA1FBE
S1131020A9F335D00E2E3AF0E0E832D0915050407A
S1131030E695001CCAF72BD0FE2F29D0660F771F28
S1131040881FBB1F261737074807AB07B0E809F00E
S1131050BB0B802DBF01FF2793585F4F3AF09E3F93
S1131060510578F00C94C5080C9410095F3FE4F323
S1131070983ED4F3869577956795B795F7959F5FD6
S1131080C9F7880F911D9695879597F90895E1E022
S1131090660F771F881FBB1F621773078407BA0781
S11310A020F0621B730B840BBA0BEE1F88F7E095DC
S11310B008950E94F50888F09F5798F0B92F992752
S11310C0B751B0F0E1F0660F771F881F991F1AF02F
S11310D0BA95C9F714C0B13091F00E940F09B1E07C
S11310E008950C940F09672F782F8827B85F39F07B
S11310F0B93FCCF3869577956795B395D9F73EF4C8
S113110090958095709561957F4F8F4F9F4F08956F
S1131110E89409C097FB3EF490958095709561958D
S11311207F4F8F4F9F4F9923A9F0F92F96E9BB2743
S11311309395F695879577956795B795F111F8CFBF
S1131140FAF4BB0F11F460FF1BC06F5F7F4F8F4F2A
S11311509F4F16C0882311F096E911C0772321F020
S11311609EE8872F762F05C0662371F096E8862FB8
S113117070E060E02AF09A95660F771F881FDAF70F
S1131180880F9695879597F9089597F99F6780E852
S113119070E060E008959FEF80EC089500240A94C5
S11311A01616170618060906089500240A9412163E
S11311B01306140605060895092E0394000C11F471
S11311C0882352F0BB0F40F4BF2B11F460FF04C01E
S11311D06F5F7F4F8F4F9F4F089557FD9058440F77
S11311E0551F59F05F3F71F04795880F97FB991F82
S11311F061F09F3F79F0879508951216130614063F
S1131200551FF2CF4695F1DF08C0161617061806CB
S1131210991FF1CF86957105610508940895E894A6
S1131220BB2766277727CB0197F908950E94880981
S113123008F48FEF08950E942E090C94DC080E9494
S1131240CE0838F00E94D50820F0952311F00C94B4
S1131250C5080C94CB0811240C9410090E94ED08C5
S113126070F3959FC1F3950F50E0551F629FF001F5
S1131270729FBB27F00DB11D639FAA27F00DB11D0E
S1131280AA1F649F6627B00DA11D661F829F222797
S1131290B00DA11D621F739FB00DA11D621F839F1E
S11312A0A00D611D221F749F3327A00D611D231FF4
S11312B0849F600D211D822F762F6A2F11249F5742
S11312C050409AF0F1F088234AF0EE0FFF1FBB1F45
S11312D0661F771F881F91505040A9F79E3F510504
S11312E080F00C94C5080C9410095F3FE4F3983E19
S11312F0D4F3869577956795B795F795E7959F5FAE
S1131300C1F7FE2B880F911D9695879597F908953F
S1131310990F0008550FAA0BE0E8FEEF1616170602
S1131320E807F907C0F012161306E407F50798F06A
S1131330621B730B840B950B39F40A2661F0232B83
S1131340242B252B21F408950A2609F4A140A695FF
S10F13508FEF811D811D0895F894FFCFDC
S113135C1919000020400102030405060708090AB4
S113136C000C57454C434F4D45005345543A0043EC
S113137C52543A0053544154453A005354414E4448
S113138C4259004F5045524154494F4E004E4F5212
S113139C4D414C004552524F52005345545F5445F5
S11313AC4D50005354414E4442592020004E4F524C
S11313BC4D414C20202020004552524F52202020D9
S10F13CC20005345545F54454D50200050
S9030000FC
